{
  "address": "0x6899f51E67e5530cc2a5b4eC015EcEceb6E5e8C5",
  "abi": [
    {
      "inputs": [
        {
          "internalType": "address",
          "name": "owner",
          "type": "address"
        },
        {
          "internalType": "string",
          "name": "_name",
          "type": "string"
        },
        {
          "internalType": "string",
          "name": "_symbol",
          "type": "string"
        },
        {
          "internalType": "contract ISuperfluid",
          "name": "host",
          "type": "address"
        },
        {
          "internalType": "contract IConstantFlowAgreementV1",
          "name": "cfa",
          "type": "address"
        },
        {
          "internalType": "contract ISuperToken",
          "name": "acceptedToken",
          "type": "address"
        }
      ],
      "stateMutability": "nonpayable",
      "type": "constructor"
    },
    {
      "anonymous": false,
      "inputs": [
        {
          "indexed": true,
          "internalType": "address",
          "name": "owner",
          "type": "address"
        },
        {
          "indexed": true,
          "internalType": "address",
          "name": "approved",
          "type": "address"
        },
        {
          "indexed": true,
          "internalType": "uint256",
          "name": "tokenId",
          "type": "uint256"
        }
      ],
      "name": "Approval",
      "type": "event"
    },
    {
      "anonymous": false,
      "inputs": [
        {
          "indexed": true,
          "internalType": "address",
          "name": "owner",
          "type": "address"
        },
        {
          "indexed": true,
          "internalType": "address",
          "name": "operator",
          "type": "address"
        },
        {
          "indexed": false,
          "internalType": "bool",
          "name": "approved",
          "type": "bool"
        }
      ],
      "name": "ApprovalForAll",
      "type": "event"
    },
    {
      "anonymous": false,
      "inputs": [
        {
          "indexed": false,
          "internalType": "address",
          "name": "receiver",
          "type": "address"
        }
      ],
      "name": "ReceiverChanged",
      "type": "event"
    },
    {
      "anonymous": false,
      "inputs": [
        {
          "indexed": true,
          "internalType": "address",
          "name": "from",
          "type": "address"
        },
        {
          "indexed": true,
          "internalType": "address",
          "name": "to",
          "type": "address"
        },
        {
          "indexed": true,
          "internalType": "uint256",
          "name": "tokenId",
          "type": "uint256"
        }
      ],
      "name": "Transfer",
      "type": "event"
    },
    {
      "inputs": [],
      "name": "_DAI",
      "outputs": [
        {
          "internalType": "contract ERC20",
          "name": "",
          "type": "address"
        }
      ],
      "stateMutability": "view",
      "type": "function"
    },
    {
      "inputs": [],
      "name": "_acceptedToken",
      "outputs": [
        {
          "internalType": "contract ISuperToken",
          "name": "",
          "type": "address"
        }
      ],
      "stateMutability": "view",
      "type": "function"
    },
    {
      "inputs": [],
      "name": "_expirationDate",
      "outputs": [
        {
          "internalType": "uint256",
          "name": "",
          "type": "uint256"
        }
      ],
      "stateMutability": "view",
      "type": "function"
    },
    {
      "inputs": [],
      "name": "_priceFeed",
      "outputs": [
        {
          "internalType": "contract AggregatorV3Interface",
          "name": "",
          "type": "address"
        }
      ],
      "stateMutability": "view",
      "type": "function"
    },
    {
      "inputs": [],
      "name": "_priceFeedDecimals",
      "outputs": [
        {
          "internalType": "uint8",
          "name": "",
          "type": "uint8"
        }
      ],
      "stateMutability": "view",
      "type": "function"
    },
    {
      "inputs": [],
      "name": "_receiver",
      "outputs": [
        {
          "internalType": "address",
          "name": "",
          "type": "address"
        }
      ],
      "stateMutability": "view",
      "type": "function"
    },
    {
      "inputs": [],
      "name": "_requiredFlowRate",
      "outputs": [
        {
          "internalType": "int96",
          "name": "",
          "type": "int96"
        }
      ],
      "stateMutability": "view",
      "type": "function"
    },
    {
      "inputs": [],
      "name": "_senderAddress",
      "outputs": [
        {
          "internalType": "address",
          "name": "",
          "type": "address"
        }
      ],
      "stateMutability": "view",
      "type": "function"
    },
    {
      "inputs": [],
      "name": "_strikePrice",
      "outputs": [
        {
          "internalType": "int256",
          "name": "",
          "type": "int256"
        }
      ],
      "stateMutability": "view",
      "type": "function"
    },
    {
      "inputs": [],
      "name": "_underlyingAmount",
      "outputs": [
        {
          "internalType": "uint256",
          "name": "",
          "type": "uint256"
        }
      ],
      "stateMutability": "view",
      "type": "function"
    },
    {
      "inputs": [],
      "name": "_underlyingAsset",
      "outputs": [
        {
          "internalType": "contract ERC20",
          "name": "",
          "type": "address"
        }
      ],
      "stateMutability": "view",
      "type": "function"
    },
    {
      "inputs": [],
      "name": "_underlyingDecimals",
      "outputs": [
        {
          "internalType": "uint8",
          "name": "",
          "type": "uint8"
        }
      ],
      "stateMutability": "view",
      "type": "function"
    },
    {
      "inputs": [
        {
          "internalType": "contract ISuperToken",
          "name": "_superToken",
          "type": "address"
        },
        {
          "internalType": "address",
          "name": "_agreementClass",
          "type": "address"
        },
        {
          "internalType": "bytes32",
          "name": "",
          "type": "bytes32"
        },
        {
          "internalType": "bytes",
          "name": "",
          "type": "bytes"
        },
        {
          "internalType": "bytes",
          "name": "",
          "type": "bytes"
        },
        {
          "internalType": "bytes",
          "name": "_ctx",
          "type": "bytes"
        }
      ],
      "name": "afterAgreementCreated",
      "outputs": [
        {
          "internalType": "bytes",
          "name": "newCtx",
          "type": "bytes"
        }
      ],
      "stateMutability": "nonpayable",
      "type": "function"
    },
    {
      "inputs": [
        {
          "internalType": "contract ISuperToken",
          "name": "_superToken",
          "type": "address"
        },
        {
          "internalType": "address",
          "name": "_agreementClass",
          "type": "address"
        },
        {
          "internalType": "bytes32",
          "name": "",
          "type": "bytes32"
        },
        {
          "internalType": "bytes",
          "name": "",
          "type": "bytes"
        },
        {
          "internalType": "bytes",
          "name": "",
          "type": "bytes"
        },
        {
          "internalType": "bytes",
          "name": "_ctx",
          "type": "bytes"
        }
      ],
      "name": "afterAgreementTerminated",
      "outputs": [
        {
          "internalType": "bytes",
          "name": "newCtx",
          "type": "bytes"
        }
      ],
      "stateMutability": "nonpayable",
      "type": "function"
    },
    {
      "inputs": [
        {
          "internalType": "contract ISuperToken",
          "name": "_superToken",
          "type": "address"
        },
        {
          "internalType": "address",
          "name": "_agreementClass",
          "type": "address"
        },
        {
          "internalType": "bytes32",
          "name": "",
          "type": "bytes32"
        },
        {
          "internalType": "bytes",
          "name": "",
          "type": "bytes"
        },
        {
          "internalType": "bytes",
          "name": "",
          "type": "bytes"
        },
        {
          "internalType": "bytes",
          "name": "_ctx",
          "type": "bytes"
        }
      ],
      "name": "afterAgreementUpdated",
      "outputs": [
        {
          "internalType": "bytes",
          "name": "newCtx",
          "type": "bytes"
        }
      ],
      "stateMutability": "nonpayable",
      "type": "function"
    },
    {
      "inputs": [
        {
          "internalType": "address",
          "name": "to",
          "type": "address"
        },
        {
          "internalType": "uint256",
          "name": "tokenId",
          "type": "uint256"
        }
      ],
      "name": "approve",
      "outputs": [],
      "stateMutability": "nonpayable",
      "type": "function"
    },
    {
      "inputs": [
        {
          "internalType": "address",
          "name": "owner",
          "type": "address"
        }
      ],
      "name": "balanceOf",
      "outputs": [
        {
          "internalType": "uint256",
          "name": "",
          "type": "uint256"
        }
      ],
      "stateMutability": "view",
      "type": "function"
    },
    {
      "inputs": [],
      "name": "baseURI",
      "outputs": [
        {
          "internalType": "string",
          "name": "",
          "type": "string"
        }
      ],
      "stateMutability": "view",
      "type": "function"
    },
    {
      "inputs": [
        {
          "internalType": "contract ISuperToken",
          "name": "",
          "type": "address"
        },
        {
          "internalType": "address",
          "name": "",
          "type": "address"
        },
        {
          "internalType": "bytes32",
          "name": "",
          "type": "bytes32"
        },
        {
          "internalType": "bytes",
          "name": "",
          "type": "bytes"
        },
        {
          "internalType": "bytes",
          "name": "",
          "type": "bytes"
        }
      ],
      "name": "beforeAgreementCreated",
      "outputs": [
        {
          "internalType": "bytes",
          "name": "",
          "type": "bytes"
        }
      ],
      "stateMutability": "view",
      "type": "function"
    },
    {
      "inputs": [
        {
          "internalType": "contract ISuperToken",
          "name": "",
          "type": "address"
        },
        {
          "internalType": "address",
          "name": "",
          "type": "address"
        },
        {
          "internalType": "bytes32",
          "name": "",
          "type": "bytes32"
        },
        {
          "internalType": "bytes",
          "name": "",
          "type": "bytes"
        },
        {
          "internalType": "bytes",
          "name": "",
          "type": "bytes"
        }
      ],
      "name": "beforeAgreementTerminated",
      "outputs": [
        {
          "internalType": "bytes",
          "name": "",
          "type": "bytes"
        }
      ],
      "stateMutability": "view",
      "type": "function"
    },
    {
      "inputs": [
        {
          "internalType": "contract ISuperToken",
          "name": "",
          "type": "address"
        },
        {
          "internalType": "address",
          "name": "",
          "type": "address"
        },
        {
          "internalType": "bytes32",
          "name": "",
          "type": "bytes32"
        },
        {
          "internalType": "bytes",
          "name": "",
          "type": "bytes"
        },
        {
          "internalType": "bytes",
          "name": "",
          "type": "bytes"
        }
      ],
      "name": "beforeAgreementUpdated",
      "outputs": [
        {
          "internalType": "bytes",
          "name": "",
          "type": "bytes"
        }
      ],
      "stateMutability": "view",
      "type": "function"
    },
    {
      "inputs": [
        {
          "internalType": "contract ERC20",
          "name": "underlyingAsset",
          "type": "address"
        },
        {
          "internalType": "uint256",
          "name": "underlyingAmount",
          "type": "uint256"
        },
        {
          "internalType": "uint8",
          "name": "underlyingDecimals",
          "type": "uint8"
        },
        {
          "internalType": "contract AggregatorV3Interface",
          "name": "priceFeed",
          "type": "address"
        },
        {
          "internalType": "uint8",
          "name": "priceFeedDecimals",
          "type": "uint8"
        },
        {
          "internalType": "int96",
          "name": "requiredFlowRate",
          "type": "int96"
        },
        {
          "internalType": "uint256",
          "name": "expirationDate",
          "type": "uint256"
        },
        {
          "internalType": "int256",
          "name": "strikePrice",
          "type": "int256"
        }
      ],
      "name": "createOption",
      "outputs": [],
      "stateMutability": "nonpayable",
      "type": "function"
    },
    {
      "inputs": [],
      "name": "currentReceiver",
      "outputs": [
        {
          "internalType": "uint256",
          "name": "startTime",
          "type": "uint256"
        },
        {
          "internalType": "address",
          "name": "receiver",
          "type": "address"
        },
        {
          "internalType": "int96",
          "name": "flowRate",
          "type": "int96"
        }
      ],
      "stateMutability": "view",
      "type": "function"
    },
    {
      "inputs": [],
      "name": "exerciseOption",
      "outputs": [],
      "stateMutability": "nonpayable",
      "type": "function"
    },
    {
      "inputs": [
        {
          "internalType": "uint256",
          "name": "tokenId",
          "type": "uint256"
        }
      ],
      "name": "getApproved",
      "outputs": [
        {
          "internalType": "address",
          "name": "",
          "type": "address"
        }
      ],
      "stateMutability": "view",
      "type": "function"
    },
    {
      "inputs": [],
      "name": "initialRate",
      "outputs": [
        {
          "internalType": "int96",
          "name": "",
          "type": "int96"
        }
      ],
      "stateMutability": "view",
      "type": "function"
    },
    {
      "inputs": [
        {
          "internalType": "address",
          "name": "owner",
          "type": "address"
        },
        {
          "internalType": "address",
          "name": "operator",
          "type": "address"
        }
      ],
      "name": "isApprovedForAll",
      "outputs": [
        {
          "internalType": "bool",
          "name": "",
          "type": "bool"
        }
      ],
      "stateMutability": "view",
      "type": "function"
    },
    {
      "inputs": [],
      "name": "name",
      "outputs": [
        {
          "internalType": "string",
          "name": "",
          "type": "string"
        }
      ],
      "stateMutability": "view",
      "type": "function"
    },
    {
      "inputs": [],
      "name": "optionActive",
      "outputs": [
        {
          "internalType": "bool",
          "name": "",
          "type": "bool"
        }
      ],
      "stateMutability": "view",
      "type": "function"
    },
    {
      "inputs": [],
      "name": "optionReady",
      "outputs": [
        {
          "internalType": "bool",
          "name": "",
          "type": "bool"
        }
      ],
      "stateMutability": "view",
      "type": "function"
    },
    {
      "inputs": [
        {
          "internalType": "uint256",
          "name": "tokenId",
          "type": "uint256"
        }
      ],
      "name": "ownerOf",
      "outputs": [
        {
          "internalType": "address",
          "name": "",
          "type": "address"
        }
      ],
      "stateMutability": "view",
      "type": "function"
    },
    {
      "inputs": [
        {
          "internalType": "address",
          "name": "from",
          "type": "address"
        },
        {
          "internalType": "address",
          "name": "to",
          "type": "address"
        },
        {
          "internalType": "uint256",
          "name": "tokenId",
          "type": "uint256"
        }
      ],
      "name": "safeTransferFrom",
      "outputs": [],
      "stateMutability": "nonpayable",
      "type": "function"
    },
    {
      "inputs": [
        {
          "internalType": "address",
          "name": "from",
          "type": "address"
        },
        {
          "internalType": "address",
          "name": "to",
          "type": "address"
        },
        {
          "internalType": "uint256",
          "name": "tokenId",
          "type": "uint256"
        },
        {
          "internalType": "bytes",
          "name": "_data",
          "type": "bytes"
        }
      ],
      "name": "safeTransferFrom",
      "outputs": [],
      "stateMutability": "nonpayable",
      "type": "function"
    },
    {
      "inputs": [
        {
          "internalType": "address",
          "name": "operator",
          "type": "address"
        },
        {
          "internalType": "bool",
          "name": "approved",
          "type": "bool"
        }
      ],
      "name": "setApprovalForAll",
      "outputs": [],
      "stateMutability": "nonpayable",
      "type": "function"
    },
    {
      "inputs": [
        {
          "internalType": "bytes4",
          "name": "interfaceId",
          "type": "bytes4"
        }
      ],
      "name": "supportsInterface",
      "outputs": [
        {
          "internalType": "bool",
          "name": "",
          "type": "bool"
        }
      ],
      "stateMutability": "view",
      "type": "function"
    },
    {
      "inputs": [],
      "name": "symbol",
      "outputs": [
        {
          "internalType": "string",
          "name": "",
          "type": "string"
        }
      ],
      "stateMutability": "view",
      "type": "function"
    },
    {
      "inputs": [
        {
          "internalType": "uint256",
          "name": "index",
          "type": "uint256"
        }
      ],
      "name": "tokenByIndex",
      "outputs": [
        {
          "internalType": "uint256",
          "name": "",
          "type": "uint256"
        }
      ],
      "stateMutability": "view",
      "type": "function"
    },
    {
      "inputs": [
        {
          "internalType": "address",
          "name": "owner",
          "type": "address"
        },
        {
          "internalType": "uint256",
          "name": "index",
          "type": "uint256"
        }
      ],
      "name": "tokenOfOwnerByIndex",
      "outputs": [
        {
          "internalType": "uint256",
          "name": "",
          "type": "uint256"
        }
      ],
      "stateMutability": "view",
      "type": "function"
    },
    {
      "inputs": [
        {
          "internalType": "uint256",
          "name": "tokenId",
          "type": "uint256"
        }
      ],
      "name": "tokenURI",
      "outputs": [
        {
          "internalType": "string",
          "name": "",
          "type": "string"
        }
      ],
      "stateMutability": "view",
      "type": "function"
    },
    {
      "inputs": [],
      "name": "totalSupply",
      "outputs": [
        {
          "internalType": "uint256",
          "name": "",
          "type": "uint256"
        }
      ],
      "stateMutability": "view",
      "type": "function"
    },
    {
      "inputs": [
        {
          "internalType": "address",
          "name": "from",
          "type": "address"
        },
        {
          "internalType": "address",
          "name": "to",
          "type": "address"
        },
        {
          "internalType": "uint256",
          "name": "tokenId",
          "type": "uint256"
        }
      ],
      "name": "transferFrom",
      "outputs": [],
      "stateMutability": "nonpayable",
      "type": "function"
    }
  ],
  "transactionHash": "0xb0b7bbc44f619ba63c9dcfd06409690c64c2db944194d6291f212adf2a823605",
  "args": [
    "0x5966aa11c794893774a382d9a19743B8be6BFFd1",
    "super option",
    "OPTx",
    "0xeD5B5b32110c3Ded02a07c8b8e97513FAfb883B6",
    "0xF4C5310E51F6079F601a5fb7120bC72a70b96e2A",
    "0x745861AeD1EEe363b4AaA5F1994Be40b1e05Ff90"
  ],
  "solcInputHash": "ad98bf5ddf7c9fc0bbda997295d8a3dd",
  "bytecode": "0x6080604052600c8054610100600160a81b0319167415f0ca26781c3852f8166ed2ebce5d18265cceb7001790553480156200003957600080fd5b506040516200481d3803806200481d8339810160408190526200005c9162000acd565b828282888888620000746301ffc9a760e01b620002a1565b8151620000899060069060208501906200099d565b5080516200009f9060079060208401906200099d565b50620000b26380ac58cd60e01b620002a1565b620000c4635b5e139f60e01b620002a1565b620000d663780e9d6360e01b620002a1565b50506001600160a01b038416620000ec57600080fd5b6001600160a01b0383166200010057600080fd5b6001600160a01b0382166200011457600080fd5b6001600160a01b0381166200012857600080fd5b604051631e51d6a760e11b81526001600160a01b03851690633ca3ad4e906200015690849060040162000c6d565b60206040518083038186803b1580156200016f57600080fd5b505afa15801562000184573d6000803e3d6000fd5b505050506040513d601f19601f82011682018060405250810190620001aa919062000b8a565b15620001b557600080fd5b60118054601280546001600160a01b038781166001600160a01b0319928316179092556013805487841690831617905560148054868416921691909117905561ffff198188166201000090810262010000600160b01b03199094169390931716928390556040516315a722b960e31b81526415000000019392909204169063ad3915c8906200024990849060040162000e22565b600060405180830381600087803b1580156200026457600080fd5b505af115801562000279573d6000803e3d6000fd5b50505050505050505062000295866001620002fc60201b60201c565b50505050505062000e74565b6001600160e01b03198082161415620002d75760405162461bcd60e51b8152600401620002ce9062000d7f565b60405180910390fd5b6001600160e01b0319166000908152602081905260409020805460ff19166001179055565b6001600160a01b038216620003255760405162461bcd60e51b8152600401620002ce9062000ded565b6200033081620003ea565b15620003505760405162461bcd60e51b8152600401620002ce9062000db6565b6200035e600083836200040d565b6001600160a01b03821660009081526001602090815260409091206200038f9183906200165a6200041d821b17901c565b50620003ad818360026200043260201b62001666179092919060201c565b5060405181906001600160a01b038416906000907fddf252ad1be2c89b69c2b068fc378daa952ba7f163c4a11628f55a4df523b3ef908290a45050565b6000620004078260026200045260201b620016861790919060201c565b92915050565b620004188262000460565b505050565b60006200042b83836200089b565b9392505050565b60006200044a84846001600160a01b038516620008ea565b949350505050565b60006200042b838362000985565b6001600160a01b0381166200047457600080fd5b601154604051631e51d6a760e11b8152620100009091046001600160a01b031690633ca3ad4e90620004ab90849060040162000c6d565b60206040518083038186803b158015620004c457600080fd5b505afa158015620004d9573d6000803e3d6000fd5b505050506040513d601f19601f82011682018060405250810190620004ff919062000b8a565b156200050a57600080fd5b6014546001600160a01b0382811691161415620005275762000898565b601254601354601454604051631cd43d1160e31b81526000936001600160a01b039081169363e6a1e88893620005699391831692309291169060040162000ce4565b60806040518083038186803b1580156200058257600080fd5b505afa15801562000597573d6000803e3d6000fd5b505050506040513d601f19601f82011682018060405250810190620005bd919062000c00565b5050915050600081600b0b13156200083b576011546012546013546014546040805160008152602081019091526001600160a01b03620100009095048516946339255d5b94811693635a5999e360e11b9362000626939183169230929116906044810162000d07565b60408051601f198184030181529181526020820180516001600160e01b03166001600160e01b03199485161790525160e085901b90921682526200066e929160040162000c81565b600060405180830381600087803b1580156200068957600080fd5b505af11580156200069e573d6000803e3d6000fd5b505050506040513d6000823e601f3d908101601f19168201604052620006c8919081019062000bac565b5060115460125460135460405163e8e7e2d160e01b81526001600160a01b03620100009094048416936339255d5b9381169263317e182f60e11b929116908790849063e8e7e2d19062000722908590309060040162000cca565b60206040518083038186803b1580156200073b57600080fd5b505afa15801562000750573d6000803e3d6000fd5b505050506040513d601f19601f8201168201806040525081019062000776919062000be2565b60408051600081526020810190915262000797939291906044810162000d47565b60408051601f198184030181529181526020820180516001600160e01b03166001600160e01b03199485161790525160e085901b9092168252620007df929160040162000c81565b600060405180830381600087803b158015620007fa57600080fd5b505af11580156200080f573d6000803e3d6000fd5b505050506040513d6000823e601f3d908101601f1916820160405262000839919081019062000bac565b505b601480546001600160a01b0319166001600160a01b0384811691909117918290556040517f7dfb1d59db37a3fd2e15e796c189dcab714cdbb18650d68a1de58f8fa60718c9926200088e92169062000c6d565b60405180910390a1505b50565b6000620008a9838362000985565b620008e15750815460018181018455600084815260208082209093018490558454848252828601909352604090209190915562000407565b50600062000407565b600082815260018401602052604081205480620009515750506040805180820182528381526020808201848152865460018181018955600089815284812095516002909302909501918255915190820155865486845281880190925292909120556200042b565b828560000160018303815481106200096557fe5b90600052602060002090600202016001018190555060009150506200042b565b60009081526001919091016020526040902054151590565b828054600181600116156101000203166002900490600052602060002090601f016020900481019282601f10620009e057805160ff191683800117855562000a10565b8280016001018555821562000a10579182015b8281111562000a10578251825591602001919060010190620009f3565b5062000a1e92915062000a22565b5090565b5b8082111562000a1e576000815560010162000a23565b600082601f83011262000a4a578081fd5b81516001600160401b038082111562000a61578283fd5b604051601f8301601f19168101602001828111828210171562000a82578485fd5b60405282815292508284830160200186101562000a9e57600080fd5b62000ab183602083016020880162000e2b565b50505092915050565b8051600b81900b81146200040757600080fd5b60008060008060008060c0878903121562000ae6578182fd5b865162000af38162000e5e565b60208801519096506001600160401b038082111562000b10578384fd5b62000b1e8a838b0162000a39565b9650604089015191508082111562000b34578384fd5b5062000b4389828a0162000a39565b945050606087015162000b568162000e5e565b608088015190935062000b698162000e5e565b60a088015190925062000b7c8162000e5e565b809150509295509295509295565b60006020828403121562000b9c578081fd5b815180151581146200042b578182fd5b60006020828403121562000bbe578081fd5b81516001600160401b0381111562000bd4578182fd5b6200044a8482850162000a39565b60006020828403121562000bf4578081fd5b6200042b838362000aba565b6000806000806080858703121562000c16578384fd5b8451935062000c29866020870162000aba565b6040860151606090960151949790965092505050565b6000815180845262000c5981602086016020860162000e2b565b601f01601f19169290920160200192915050565b6001600160a01b0391909116815260200190565b6001600160a01b038316815260606020820181905260009062000ca79083018462000c3f565b8281036040938401526002815261060f60f31b6020820152919091019392505050565b6001600160a01b0392831681529116602082015260400190565b6001600160a01b0393841681529183166020830152909116604082015260600190565b6001600160a01b03858116825284811660208301528316604082015260806060820181905260009062000d3d9083018462000c3f565b9695505050505050565b6001600160a01b03858116825284166020820152600b83900b604082015260806060820181905260009062000d3d9083018462000c3f565b6020808252601c908201527f4552433136353a20696e76616c696420696e7465726661636520696400000000604082015260600190565b6020808252601c908201527f4552433732313a20746f6b656e20616c7265616479206d696e74656400000000604082015260600190565b6020808252818101527f4552433732313a206d696e7420746f20746865207a65726f2061646472657373604082015260600190565b90815260200190565b60005b8381101562000e4857818101518382015260200162000e2e565b8381111562000e58576000848401525b50505050565b6001600160a01b03811681146200089857600080fd5b6139998062000e846000396000f3fe608060405234801561001057600080fd5b50600436106102535760003560e01c80635c78db46116101465780639e51051f116100c3578063c87b56dd11610087578063c87b56dd14610493578063d86ed3e5146104a6578063db10b642146104b9578063e985e9c5146104c1578063e9997cdd146104d4578063fcedc2c1146104dc57610253565b80639e51051f14610448578063a22cb4651461045d578063ad00818414610470578063b88d4fde14610478578063c17a80e91461048b57610253565b806370a082311161010a57806370a082311461040a57806382776b621461041d578063884d1f401461042557806394d340b41461043857806395d89b411461044057610253565b80635c78db46146103c15780635f9e7d77146103c957806361c83a45146103dc5780636352211e146103ef5780636c0360eb1461040257610253565b806328d2bf94116101d45780634e5b3c7c116101985780634e5b3c7c146103765780634f6ccce71461037e57806353c11f99146103915780635838048d146103a45780635c2fad3b146103b957610253565b806328d2bf941461031e5780632f745c591461033557806330d9c91514610348578063352fd1281461035b57806342842e0e1461036357610253565b806316c9b8801161021b57806316c9b880146102d357806318160ddd146102e8578063230dbd29146102f057806323b872dd14610303578063243c04651461031657610253565b806301ffc9a71461025857806302964ff11461028157806306fdde0314610296578063081812fc146102ab578063095ea7b3146102be575b600080fd5b61026b610266366004612b38565b6104e4565b60405161027891906130dc565b60405180910390f35b610289610507565b604051610278919061304e565b61029e610516565b6040516102789190613116565b6102896102b9366004612f1c565b6105ac565b6102d16102cc366004612ad9565b6105f8565b005b6102db610690565b6040516102789190613257565b6102db610696565b61029e6102fe366004612d2b565b6106a7565b6102d16103113660046129ca565b61085d565b61026b610895565b6103266108a3565b6040516102789392919061380a565b6102db610343366004612ad9565b610966565b61029e610356366004612c8f565b610991565b6102db6109ab565b6102d16103713660046129ca565b6109b1565b6102896109cc565b6102db61038c366004612f1c565b6109db565b61029e61039f366004612d2b565b6109f1565b6103ac610bc2565b604051610278919061382c565b6102db610bcb565b610289610bd1565b61029e6103d7366004612c8f565b610be0565b6102d16103ea366004612c04565b610bfa565b6102896103fd366004612f1c565b610d38565b61029e610d60565b6102db610418366004612976565b610dc1565b610289610e0a565b61029e610433366004612c8f565b610e19565b610289610e33565b61029e610e42565b610450610ea3565b6040516102789190613260565b6102d161046b366004612aac565b610eb3565b6103ac610f81565b6102d1610486366004612a0a565b610f91565b610289610fd0565b61029e6104a1366004612f1c565b610fe4565b61029e6104b4366004612d2b565b61112a565b6102d1611365565b61026b6104cf366004612992565b61161a565b610450611648565b61026b611651565b6001600160e01b0319811660009081526020819052604090205460ff165b919050565b6014546001600160a01b031681565b60068054604080516020601f60026000196101006001881615020190951694909404938401819004810282018101909252828152606093909290918301828280156105a25780601f10610577576101008083540402835291602001916105a2565b820191906000526020600020905b81548152906001019060200180831161058557829003601f168201915b5050505050905090565b60006105b782611692565b6105dc5760405162461bcd60e51b81526004016105d3906135bf565b60405180910390fd5b506000908152600460205260409020546001600160a01b031690565b600061060382610d38565b9050806001600160a01b0316836001600160a01b031614156106375760405162461bcd60e51b81526004016105d3906136a3565b806001600160a01b031661064961169f565b6001600160a01b031614806106655750610665816104cf61169f565b6106815760405162461bcd60e51b81526004016105d3906134d6565b61068b83836116a3565b505050565b600e5481565b60006106a26002611711565b905090565b606089896106b48261171c565b6106d05760405162461bcd60e51b81526004016105d390613343565b6106d981611730565b6106f55760405162461bcd60e51b81526004016105d3906132b0565b6011546201000090046001600160a01b031633146107255760405162461bcd60e51b81526004016105d3906133cd565b601254601354604051631cd43d1160e31b81526000926001600160a01b039081169263e6a1e888926107619290911690339030906004016131ca565b60806040518083038186803b15801561077957600080fd5b505afa15801561078d573d6000803e3d6000fd5b505050506040513d601f19601f820116820180604052508101906107b19190612f34565b5050600f54909250600b90810b810b9083900b12801591506107d4575060105442105b80156107e7575060115460ff1615156001145b80156107fb5750601154610100900460ff16155b1561080d576108086117cb565b610842565b60115460ff61010090910416151560011480156108355750600f54600b90810b810b9082900b125b1561084257610842611869565b61084c8686611904565b9d9c50505050505050505050505050565b61086e61086861169f565b82611cc4565b61088a5760405162461bcd60e51b81526004016105d390613733565b61068b838383611d49565b601154610100900460ff1681565b601454600090819081906001600160a01b03161561096157601254601354601454604051631cd43d1160e31b81526001600160a01b039384169363e6a1e888936108f993908216923092909116906004016131ca565b60806040518083038186803b15801561091157600080fd5b505afa158015610925573d6000803e3d6000fd5b505050506040513d601f19601f820116820180604052508101906109499190612f34565b50506014549194506001600160a01b03909116925090505b909192565b6001600160a01b03821660009081526001602052604081206109889083611e57565b90505b92915050565b606060405162461bcd60e51b81526004016105d3906137bb565b600b5481565b61068b83838360405180602001604052806000815250610f91565b6013546001600160a01b031681565b6000806109e9600284611e63565b509392505050565b6011546060906201000090046001600160a01b03163314610a245760405162461bcd60e51b81526004016105d3906133cd565b610a2d8a61171c565b1580610a3f5750610a3d89611730565b155b15610a835782828080601f016020809104026020016040519081016040528093929190818152602001838380828437600092019190915250929350610bb592505050565b426010556011805461ffff19169055600a54601454600b5460405163a9059cbb60e01b81526001600160a01b039384169363a9059cbb93610ac9939116916004016130c3565b602060405180830381600087803b158015610ae357600080fd5b505af1925050508015610b13575060408051601f3d908101601f19168201909252610b1091810190612b04565b60015b610ba657600a54601454600b5460405163095ea7b360e01b81526001600160a01b039384169363095ea7b393610b4e939116916004016130c3565b602060405180830381600087803b158015610b6857600080fd5b505af1158015610b7c573d6000803e3d6000fd5b505050506040513d601f19601f82011682018060405250810190610ba09190612b04565b50610ba8565b505b610bb28383611904565b90505b9998505050505050505050565b600c5460ff1681565b60105481565b600d546001600160a01b031681565b606060405162461bcd60e51b81526004016105d39061337a565b6014546001600160a01b03163314610c1157600080fd5b600a80546001600160a01b03199081166001600160a01b038b81169190911792839055600b8a8155600c805460ff191660ff8c811691909117909155600d80549094168a84161760ff60a01b1916600160a01b918a169190910217909255600e849055600f80546bffffffffffffffffffffffff19166bffffffffffffffffffffffff9388900b9390931692909217909155601084905560405163095ea7b360e01b815291169063095ea7b390610cce9030908b906004016130c3565b602060405180830381600087803b158015610ce857600080fd5b505af1158015610cfc573d6000803e3d6000fd5b505050506040513d601f19601f82011682018060405250810190610d209190612b04565b50506011805460ff1916600117905550505050505050565b600061098b8260405180606001604052806029815260200161393b6029913960029190611e81565b60098054604080516020601f60026000196101006001881615020190951694909404938401819004810282018101909252828152606093909290918301828280156105a25780601f10610577576101008083540402835291602001916105a2565b60006001600160a01b038216610de95760405162461bcd60e51b81526004016105d390613533565b6001600160a01b038216600090815260016020526040902061098b90611711565b600a546001600160a01b031681565b606060405162461bcd60e51b81526004016105d3906136e4565b6015546001600160a01b031681565b60078054604080516020601f60026000196101006001881615020190951694909404938401819004810282018101909252828152606093909290918301828280156105a25780601f10610577576101008083540402835291602001916105a2565b601454600160a01b9004600b0b81565b610ebb61169f565b6001600160a01b0316826001600160a01b03161415610eec5760405162461bcd60e51b81526004016105d390613453565b8060056000610ef961169f565b6001600160a01b03908116825260208083019390935260409182016000908120918716808252919093529120805460ff191692151592909217909155610f3d61169f565b6001600160a01b03167f17307eab39ab6107e8899845ad3d59bd9653f200f220920489ca2b5937696c3183604051610f7591906130dc565b60405180910390a35050565b600d54600160a01b900460ff1681565b610fa2610f9c61169f565b83611cc4565b610fbe5760405162461bcd60e51b81526004016105d390613733565b610fca84848484611e8e565b50505050565b600c5461010090046001600160a01b031681565b6060610fef82611692565b61100b5760405162461bcd60e51b81526004016105d390613654565b60008281526008602090815260409182902080548351601f60026000196101006001861615020190931692909204918201849004840281018401909452808452606093928301828280156110a05780601f10611075576101008083540402835291602001916110a0565b820191906000526020600020905b81548152906001019060200180831161108357829003601f168201915b5050505050905060606110b1610d60565b90508051600014156110c557509050610502565b8151156110f75780826040516020016110df92919061301f565b60405160208183030381529060405292505050610502565b8061110185611ec1565b60405160200161111292919061301f565b60405160208183030381529060405292505050919050565b606089896111378261171c565b6111535760405162461bcd60e51b81526004016105d390613343565b61115c81611730565b6111785760405162461bcd60e51b81526004016105d3906132b0565b6011546201000090046001600160a01b031633146111a85760405162461bcd60e51b81526004016105d3906133cd565b6111b0612855565b601154604051631fb6491d60e11b8152620100009091046001600160a01b031690633f6c923a906111e790899089906004016130e7565b60006040518083038186803b1580156111ff57600080fd5b505afa158015611213573d6000803e3d6000fd5b505050506040513d6000823e601f3d908101601f1916820160405261123b9190810190612e0e565b6060810151601580546001600160a01b0319166001600160a01b0380841691909117909155601254601354604051631cd43d1160e31b815294955092936000939183169263e6a1e8889261129892911690869030906004016131ca565b60806040518083038186803b1580156112b057600080fd5b505afa1580156112c4573d6000803e3d6000fd5b505050506040513d601f19601f820116820180604052508101906112e89190612f34565b505060148054600b83810b6bffffffffffffffffffffffff8116600160a01b026001600160a01b0390931692909217909255600f5492945091810b900b138015915061133b575060115460ff1615156001145b15611348576113486117cb565b6113528888611904565b9f9e505050505050505050505050505050565b601054421161137b57611376611869565b611618565b600d5460408051633fabe5a360e21b815290516000926001600160a01b03169163feaf968c9160048083019260a0929190829003018186803b1580156113c057600080fd5b505afa1580156113d4573d6000803e3d6000fd5b505050506040513d601f19601f820116820180604052508101906113f89190612f71565b5050600c54600d5492945060ff908116600160a01b9093041691909114915061143a905057600d54600c5460ff600160a01b909204821691160360ff16600a0a025b601254601354604051631cd43d1160e31b81526000926001600160a01b039081169263e6a1e888926114769290911690339030906004016131ca565b60806040518083038186803b15801561148e57600080fd5b505afa1580156114a2573d6000803e3d6000fd5b505050506040513d601f19601f820116820180604052508101906114c69190612f34565b5050915050600e548212156114da57600080fd5b600f54600b90810b810b9082900b12156114f357600080fd5b600c54601454600e5460405163a9059cbb60e01b81526001600160a01b0361010090940484169363a9059cbb9361152f939116916004016130c3565b602060405180830381600087803b15801561154957600080fd5b505af115801561155d573d6000803e3d6000fd5b505050506040513d601f19601f820116820180604052508101906115819190612b04565b50600a54600b546040516323b872dd60e01b81526001600160a01b03909216916323b872dd916115b7913091339160040161309f565b602060405180830381600087803b1580156115d157600080fd5b505af11580156115e5573d6000803e3d6000fd5b505050506040513d601f19601f820116820180604052508101906116099190612b04565b50506011805461ffff19169055505b565b6001600160a01b03918216600090815260056020908152604080832093909416825291909152205460ff1690565b600f54600b0b81565b60115460ff1681565b60006109888383611f9c565b600061167c84846001600160a01b038516611fe6565b90505b9392505050565b6000610988838361207d565b600061098b600283611686565b3390565b600081815260046020526040902080546001600160a01b0319166001600160a01b03841690811790915581906116d882610d38565b6001600160a01b03167f8c5be1e5ebec7d5bd14f71427d1e84f3dd0314c0f7b2291e5b200ac8c7c3b92560405160405180910390a45050565b600061098b82612095565b6013546001600160a01b0390811691161490565b60007fa9214cc96615e0085d3bb077758db69497dc2dce3b2b1e97bc93c3d18d83efd3826001600160a01b0316637730599e6040518163ffffffff1660e01b815260040160206040518083038186803b15801561178c57600080fd5b505afa1580156117a0573d6000803e3d6000fd5b505050506040513d601f19601f820116820180604052508101906117c49190612b20565b1492915050565b600a54601454600b546040516323b872dd60e01b81526001600160a01b03938416936323b872dd936118059391169130919060040161309f565b602060405180830381600087803b15801561181f57600080fd5b505af1158015611833573d6000803e3d6000fd5b505050506040513d601f19601f820116820180604052508101906118579190612b04565b506011805461ff001916610100179055565b600a54601454600b5460405163a9059cbb60e01b81526001600160a01b039384169363a9059cbb936118a0939116916004016130c3565b602060405180830381600087803b1580156118ba57600080fd5b505af11580156118ce573d6000803e3d6000fd5b505050506040513d601f19601f820116820180604052508101906118f29190612b04565b50426010556011805461ffff19169055565b606082828080601f016020809104026020016040519081016040528093929190818152602001838380828437600092018290525060125460135460405163e8e7e2d160e01b815296975091956001600160a01b03918216955063e8e7e2d19450611976935091169030906004016131b0565b60206040518083038186803b15801561198e57600080fd5b505afa1580156119a2573d6000803e3d6000fd5b505050506040513d601f19601f820116820180604052508101906119c69190612df2565b601254601354601454604051631cd43d1160e31b81529394506000936001600160a01b039384169363e6a1e88893611a0a93908216923092909116906004016131ca565b60806040518083038186803b158015611a2257600080fd5b505afa158015611a36573d6000803e3d6000fd5b505050506040513d601f19601f82011682018060405250810190611a5a9190612f34565b509092505050818101600b81900b611b67576011546012546013546014546040805160008152602081019091526001600160a01b0362010000909504851694634329d29394811693635a5999e360e11b93611ac193918316923092911690604481016131ed565b60408051601f198184030181529181526020820180516001600160e01b03166001600160e01b03199485161790525160e085901b9092168252611b0992918990600401613167565b600060405180830381600087803b158015611b2357600080fd5b505af1158015611b37573d6000803e3d6000fd5b505050506040513d6000823e601f3d908101601f19168201604052611b5f9190810190612ba3565b509350611cbb565b600b82900b15611bc5576011546012546013546014546040805160008152602081019091526001600160a01b0362010000909504851694634329d293948116936328104d3160e11b93611ac193918316921690889060448101613221565b6011546012546013546014546040805160008152602081019091526001600160a01b0362010000909504851694634329d2939481169363317e182f60e11b93611c1993918316921690889060448101613221565b60408051601f198184030181529181526020820180516001600160e01b03166001600160e01b03199485161790525160e085901b9092168252611c6192918990600401613167565b600060405180830381600087803b158015611c7b57600080fd5b505af1158015611c8f573d6000803e3d6000fd5b505050506040513d6000823e601f3d908101601f19168201604052611cb79190810190612ba3565b5093505b50505092915050565b6000611ccf82611692565b611ceb5760405162461bcd60e51b81526004016105d39061348a565b6000611cf683610d38565b9050806001600160a01b0316846001600160a01b03161480611d315750836001600160a01b0316611d26846105ac565b6001600160a01b0316145b80611d415750611d41818561161a565b949350505050565b826001600160a01b0316611d5c82610d38565b6001600160a01b031614611d825760405162461bcd60e51b81526004016105d39061360b565b6001600160a01b038216611da85760405162461bcd60e51b81526004016105d39061340f565b611db3838383612099565b611dbe6000826116a3565b6001600160a01b0383166000908152600160205260409020611de090826120a2565b506001600160a01b0382166000908152600160205260409020611e03908261165a565b50611e1060028284611666565b5080826001600160a01b0316846001600160a01b03167fddf252ad1be2c89b69c2b068fc378daa952ba7f163c4a11628f55a4df523b3ef60405160405180910390a4505050565b600061098883836120ae565b6000808080611e7286866120f3565b909450925050505b9250929050565b600061167c84848461214f565b611e99848484611d49565b611ea5848484846121ae565b610fca5760405162461bcd60e51b81526004016105d3906132f1565b606081611ee657506040805180820190915260018152600360fc1b6020820152610502565b8160005b8115611efe57600101600a82049150611eea565b60608167ffffffffffffffff81118015611f1757600080fd5b506040519080825280601f01601f191660200182016040528015611f42576020820181803683370190505b50859350905060001982015b8315611f9357600a840660300160f81b82828060019003935081518110611f7157fe5b60200101906001600160f81b031916908160001a905350600a84049350611f4e565b50949350505050565b6000611fa8838361207d565b611fde5750815460018181018455600084815260208082209093018490558454848252828601909352604090209190915561098b565b50600061098b565b60008281526001840160205260408120548061204b57505060408051808201825283815260208082018481528654600181810189556000898152848120955160029093029095019182559151908201558654868452818801909252929091205561167f565b8285600001600183038154811061205e57fe5b906000526020600020906002020160010181905550600091505061167f565b60009081526001919091016020526040902054151590565b5490565b61068b8261228d565b6000610988838361269f565b815460009082106120d15760405162461bcd60e51b81526004016105d39061326e565b8260000182815481106120e057fe5b9060005260206000200154905092915050565b8154600090819083106121185760405162461bcd60e51b81526004016105d39061357d565b600084600001848154811061212957fe5b906000526020600020906002020190508060000154816001015492509250509250929050565b6000828152600184016020526040812054828161217f5760405162461bcd60e51b81526004016105d39190613116565b5084600001600182038154811061219257fe5b9060005260206000209060020201600101549150509392505050565b60006121c2846001600160a01b031661276c565b6121ce57506001611d41565b6060612256630a85bd0160e11b6121e361169f565b8887876040516024016121f99493929190613062565b604051602081830303815290604052906001600160e01b0319166020820180516001600160e01b038381831617835250505050604051806060016040528060328152602001613909603291396001600160a01b0388169190612772565b905060008180602001905181019061226e9190612b54565b6001600160e01b031916630a85bd0160e11b1492505050949350505050565b6001600160a01b0381166122a057600080fd5b601154604051631e51d6a760e11b8152620100009091046001600160a01b031690633ca3ad4e906122d590849060040161304e565b60206040518083038186803b1580156122ed57600080fd5b505afa158015612301573d6000803e3d6000fd5b505050506040513d601f19601f820116820180604052508101906123259190612b04565b1561232f57600080fd5b6014546001600160a01b038281169116141561234a5761269c565b601254601354601454604051631cd43d1160e31b81526000936001600160a01b039081169363e6a1e8889361238a939183169230929116906004016131ca565b60806040518083038186803b1580156123a257600080fd5b505afa1580156123b6573d6000803e3d6000fd5b505050506040513d601f19601f820116820180604052508101906123da9190612f34565b5050915050600081600b0b1315612641576011546012546013546014546040805160008152602081019091526001600160a01b03620100009095048516946339255d5b94811693635a5999e360e11b9361244093918316923092911690604481016131ed565b60408051601f198184030181529181526020820180516001600160e01b03166001600160e01b03199485161790525160e085901b90921682526124869291600401613129565b600060405180830381600087803b1580156124a057600080fd5b505af11580156124b4573d6000803e3d6000fd5b505050506040513d6000823e601f3d908101601f191682016040526124dc9190810190612b70565b5060115460125460135460405163e8e7e2d160e01b81526001600160a01b03620100009094048416936339255d5b9381169263317e182f60e11b929116908790849063e8e7e2d19061253490859030906004016131b0565b60206040518083038186803b15801561254c57600080fd5b505afa158015612560573d6000803e3d6000fd5b505050506040513d601f19601f820116820180604052508101906125849190612df2565b6040805160008152602081019091526125a39392919060448101613221565b60408051601f198184030181529181526020820180516001600160e01b03166001600160e01b03199485161790525160e085901b90921682526125e99291600401613129565b600060405180830381600087803b15801561260357600080fd5b505af1158015612617573d6000803e3d6000fd5b505050506040513d6000823e601f3d908101601f1916820160405261263f9190810190612b70565b505b601480546001600160a01b0319166001600160a01b0384811691909117918290556040517f7dfb1d59db37a3fd2e15e796c189dcab714cdbb18650d68a1de58f8fa60718c99261269292169061304e565b60405180910390a1505b50565b6000818152600183016020526040812054801561275b57835460001980830191908101906000908790839081106126d257fe5b90600052602060002001549050808760000184815481106126ef57fe5b60009182526020808320909101929092558281526001898101909252604090209084019055865487908061271f57fe5b6001900381819060005260206000200160009055905586600101600087815260200190815260200160002060009055600194505050505061098b565b600091505061098b565b5092915050565b3b151590565b606061167c8484600085856127868561276c565b6127a25760405162461bcd60e51b81526004016105d390613784565b60006060866001600160a01b031685876040516127bf9190613003565b60006040518083038185875af1925050503d80600081146127fc576040519150601f19603f3d011682016040523d82523d6000602084013e612801565b606091505b509150915061281182828661281c565b979650505050505050565b6060831561282b57508161167f565b82511561283b5782518084602001fd5b8160405162461bcd60e51b81526004016105d39190613116565b604080516101608101825260008082526020820181905291810182905260608082018390526080820183905260a082015260c0810182905260e081018290526101008101829052610120810182905261014081019190915290565b805161098b816138b1565b805161098b816138d4565b60008083601f8401126128d7578182fd5b50813567ffffffffffffffff8111156128ee578182fd5b602083019150836020828501011115611e7a57600080fd5b600082601f830112612916578081fd5b815161292961292482613861565b61383a565b915080825283602082850101111561294057600080fd5b612765816020840160208601613885565b805169ffffffffffffffffffff8116811461098b57600080fd5b805161098b816138f9565b600060208284031215612987578081fd5b813561167f816138b1565b600080604083850312156129a4578081fd5b82356129af816138b1565b915060208301356129bf816138b1565b809150509250929050565b6000806000606084860312156129de578081fd5b83356129e9816138b1565b925060208401356129f9816138b1565b929592945050506040919091013590565b60008060008060808587031215612a1f578182fd5b8435612a2a816138b1565b93506020850135612a3a816138b1565b925060408501359150606085013567ffffffffffffffff811115612a5c578182fd5b8501601f81018713612a6c578182fd5b8035612a7a61292482613861565b818152886020838501011115612a8e578384fd5b81602084016020830137908101602001929092525092959194509250565b60008060408385031215612abe578182fd5b8235612ac9816138b1565b915060208301356129bf816138c6565b60008060408385031215612aeb578182fd5b8235612af6816138b1565b946020939093013593505050565b600060208284031215612b15578081fd5b815161167f816138c6565b600060208284031215612b31578081fd5b5051919050565b600060208284031215612b49578081fd5b813561167f816138d4565b600060208284031215612b65578081fd5b815161167f816138d4565b600060208284031215612b81578081fd5b815167ffffffffffffffff811115612b97578182fd5b611d4184828501612906565b60008060408385031215612bb5578182fd5b825167ffffffffffffffff80821115612bcc578384fd5b612bd886838701612906565b93506020850151915080821115612bed578283fd5b50612bfa85828601612906565b9150509250929050565b600080600080600080600080610100898b031215612c20578586fd5b8835612c2b816138b1565b9750602089013596506040890135612c42816138f9565b95506060890135612c52816138b1565b94506080890135612c62816138f9565b935060a0890135612c72816138ea565b979a969950949793969295929450505060c08201359160e0013590565b600080600080600080600060a0888a031215612ca9578081fd5b8735612cb4816138b1565b96506020880135612cc4816138b1565b955060408801359450606088013567ffffffffffffffff80821115612ce7578283fd5b612cf38b838c016128c6565b909650945060808a0135915080821115612d0b578283fd5b50612d188a828b016128c6565b989b979a50959850939692959293505050565b600080600080600080600080600060c08a8c031215612d48578283fd5b8935612d53816138b1565b985060208a0135612d63816138b1565b975060408a0135965060608a013567ffffffffffffffff80821115612d86578485fd5b612d928d838e016128c6565b909850965060808c0135915080821115612daa578485fd5b612db68d838e016128c6565b909650945060a08c0135915080821115612dce578283fd5b50612ddb8c828d016128c6565b915080935050809150509295985092959850929598565b600060208284031215612e03578081fd5b815161167f816138ea565b600060208284031215612e1f578081fd5b815167ffffffffffffffff80821115612e36578283fd5b8184019150610160808387031215612e4c578384fd5b612e558161383a565b9050612e61868461296b565b8152612e70866020850161296b565b602082015260408301516040820152612e8c86606085016128b0565b6060820152612e9e86608085016128bb565b608082015260a083015182811115612eb4578485fd5b612ec087828601612906565b60a08301525060c083015160c082015260e083015160e0820152610100915081830151828201526101209150612ef8868385016128b0565b828201526101409150612f0d868385016128b0565b91810191909152949350505050565b600060208284031215612f2d578081fd5b5035919050565b60008060008060808587031215612f49578182fd5b845193506020850151612f5b816138ea565b6040860151606090960151949790965092505050565b600080600080600060a08688031215612f88578283fd5b612f928787612951565b9450602086015193506040860151925060608601519150612fb68760808801612951565b90509295509295909350565b60008151808452612fda816020860160208601613885565b601f01601f19169290920160200192915050565b6002815261060f60f31b602082015260400190565b60008251613015818460208701613885565b9190910192915050565b60008351613031818460208801613885565b835190830190613045818360208801613885565b01949350505050565b6001600160a01b0391909116815260200190565b6001600160a01b038581168252841660208201526040810183905260806060820181905260009061309590830184612fc2565b9695505050505050565b6001600160a01b039384168152919092166020820152604081019190915260600190565b6001600160a01b03929092168252602082015260400190565b901515815260200190565b60006020825282602083015282846040840137818301604090810191909152601f909201601f19160101919050565b6000602082526109886020830184612fc2565b6001600160a01b038316815260606020820181905260009061314d90830184612fc2565b828103604084015261315e81612fee565b95945050505050565b6001600160a01b038416815260806020820181905260009061318b90830185612fc2565b828103604084015261319c81612fee565b905082810360608401526130958185612fc2565b6001600160a01b0392831681529116602082015260400190565b6001600160a01b0393841681529183166020830152909116604082015260600190565b6001600160a01b03858116825284811660208301528316604082015260806060820181905260009061309590830184612fc2565b6001600160a01b03858116825284166020820152600b83900b604082015260806060820181905260009061309590830184612fc2565b90815260200190565b600b9190910b815260200190565b60208082526022908201527f456e756d657261626c655365743a20696e646578206f7574206f6620626f756e604082015261647360f01b606082015260800190565b60208082526021908201527f5265646972656374416c6c3a206f6e6c7920434641763120737570706f7274656040820152601960fa1b606082015260800190565b60208082526032908201527f4552433732313a207472616e7366657220746f206e6f6e20455243373231526560408201527131b2b4bb32b91034b6b83632b6b2b73a32b960711b606082015260800190565b6020808252601f908201527f5265646972656374416c6c3a206e6f7420616363657074656420746f6b656e00604082015260600190565b60208082526033908201527f556e737570706f727465642063616c6c6261636b202d20204265666f7265204160408201527219dc99595b595b9d0815195c9b5a5b985d1959606a1b606082015260800190565b60208082526022908201527f5265646972656374416c6c3a20737570706f7274206f6e6c79206f6e6520686f6040820152611cdd60f21b606082015260800190565b60208082526024908201527f4552433732313a207472616e7366657220746f20746865207a65726f206164646040820152637265737360e01b606082015260800190565b60208082526019908201527f4552433732313a20617070726f766520746f2063616c6c657200000000000000604082015260600190565b6020808252602c908201527f4552433732313a206f70657261746f7220717565727920666f72206e6f6e657860408201526b34b9ba32b73a103a37b5b2b760a11b606082015260800190565b60208082526038908201527f4552433732313a20617070726f76652063616c6c6572206973206e6f74206f7760408201527f6e6572206e6f7220617070726f76656420666f7220616c6c0000000000000000606082015260800190565b6020808252602a908201527f4552433732313a2062616c616e636520717565727920666f7220746865207a65604082015269726f206164647265737360b01b606082015260800190565b60208082526022908201527f456e756d657261626c654d61703a20696e646578206f7574206f6620626f756e604082015261647360f01b606082015260800190565b6020808252602c908201527f4552433732313a20617070726f76656420717565727920666f72206e6f6e657860408201526b34b9ba32b73a103a37b5b2b760a11b606082015260800190565b60208082526029908201527f4552433732313a207472616e73666572206f6620746f6b656e2074686174206960408201526839903737ba1037bbb760b91b606082015260800190565b6020808252602f908201527f4552433732314d657461646174613a2055524920717565727920666f72206e6f60408201526e3732bc34b9ba32b73a103a37b5b2b760891b606082015260800190565b60208082526021908201527f4552433732313a20617070726f76616c20746f2063757272656e74206f776e656040820152603960f91b606082015260800190565b6020808252602f908201527f556e737570706f727465642063616c6c6261636b202d204265666f726520416760408201526e1c99595b595b9d081d5c19185d1959608a1b606082015260800190565b60208082526031908201527f4552433732313a207472616e736665722063616c6c6572206973206e6f74206f6040820152701ddb995c881b9bdc88185c1c1c9bdd9959607a1b606082015260800190565b6020808252601d908201527f416464726573733a2063616c6c20746f206e6f6e2d636f6e7472616374000000604082015260600190565b6020808252602f908201527f556e737570706f727465642063616c6c6261636b202d204265666f726520416760408201526e1c99595b595b9d0810dc99585d1959608a1b606082015260800190565b9283526001600160a01b03919091166020830152600b0b604082015260600190565b60ff91909116815260200190565b60405181810167ffffffffffffffff8111828210171561385957600080fd5b604052919050565b600067ffffffffffffffff821115613877578081fd5b50601f01601f191660200190565b60005b838110156138a0578181015183820152602001613888565b83811115610fca5750506000910152565b6001600160a01b038116811461269c57600080fd5b801515811461269c57600080fd5b6001600160e01b03198116811461269c57600080fd5b80600b0b811461269c57600080fd5b60ff8116811461269c57600080fdfe4552433732313a207472616e7366657220746f206e6f6e20455243373231526563656976657220696d706c656d656e7465724552433732313a206f776e657220717565727920666f72206e6f6e6578697374656e7420746f6b656ea2646970667358221220e173e203eb2b6ea381585f391d37bb3daa4fc6005fca44d8411f090bfd74bed064736f6c63430007000033",
  "devdoc": {
    "kind": "dev",
    "methods": {
      "approve(address,uint256)": {
        "details": "See {IERC721-approve}."
      },
      "balanceOf(address)": {
        "details": "See {IERC721-balanceOf}."
      },
      "baseURI()": {
        "details": "Returns the base URI set via {_setBaseURI}. This will be automatically added as a prefix in {tokenURI} to each token's URI, or to the token ID if no specific URI is set for that token ID."
      },
      "getApproved(uint256)": {
        "details": "See {IERC721-getApproved}."
      },
      "isApprovedForAll(address,address)": {
        "details": "See {IERC721-isApprovedForAll}."
      },
      "name()": {
        "details": "See {IERC721Metadata-name}."
      },
      "ownerOf(uint256)": {
        "details": "See {IERC721-ownerOf}."
      },
      "safeTransferFrom(address,address,uint256)": {
        "details": "See {IERC721-safeTransferFrom}."
      },
      "safeTransferFrom(address,address,uint256,bytes)": {
        "details": "See {IERC721-safeTransferFrom}."
      },
      "setApprovalForAll(address,bool)": {
        "details": "See {IERC721-setApprovalForAll}."
      },
      "supportsInterface(bytes4)": {
        "details": "See {IERC165-supportsInterface}. Time complexity O(1), guaranteed to always use less than 30 000 gas."
      },
      "symbol()": {
        "details": "See {IERC721Metadata-symbol}."
      },
      "tokenByIndex(uint256)": {
        "details": "See {IERC721Enumerable-tokenByIndex}."
      },
      "tokenOfOwnerByIndex(address,uint256)": {
        "details": "See {IERC721Enumerable-tokenOfOwnerByIndex}."
      },
      "tokenURI(uint256)": {
        "details": "See {IERC721Metadata-tokenURI}."
      },
      "totalSupply()": {
        "details": "See {IERC721Enumerable-totalSupply}."
      },
      "transferFrom(address,address,uint256)": {
        "details": "See {IERC721-transferFrom}."
      }
    },
    "version": 1
  },
  "userdoc": {
    "kind": "user",
    "methods": {},
    "version": 1
  },
  "storageLayout": {
    "storage": [
      {
        "astId": 59,
        "contract": "contracts/TradeableCashflowOption.sol:TradeableCashflowOption",
        "label": "_supportedInterfaces",
        "offset": 0,
        "slot": "0",
        "type": "t_mapping(t_bytes4,t_bool)"
      },
      {
        "astId": 1096,
        "contract": "contracts/TradeableCashflowOption.sol:TradeableCashflowOption",
        "label": "_holderTokens",
        "offset": 0,
        "slot": "1",
        "type": "t_mapping(t_address,t_struct(UintSet)3621_storage)"
      },
      {
        "astId": 1098,
        "contract": "contracts/TradeableCashflowOption.sol:TradeableCashflowOption",
        "label": "_tokenOwners",
        "offset": 0,
        "slot": "2",
        "type": "t_struct(UintToAddressMap)2998_storage"
      },
      {
        "astId": 1102,
        "contract": "contracts/TradeableCashflowOption.sol:TradeableCashflowOption",
        "label": "_tokenApprovals",
        "offset": 0,
        "slot": "4",
        "type": "t_mapping(t_uint256,t_address)"
      },
      {
        "astId": 1108,
        "contract": "contracts/TradeableCashflowOption.sol:TradeableCashflowOption",
        "label": "_operatorApprovals",
        "offset": 0,
        "slot": "5",
        "type": "t_mapping(t_address,t_mapping(t_address,t_bool))"
      },
      {
        "astId": 1110,
        "contract": "contracts/TradeableCashflowOption.sol:TradeableCashflowOption",
        "label": "_name",
        "offset": 0,
        "slot": "6",
        "type": "t_string_storage"
      },
      {
        "astId": 1112,
        "contract": "contracts/TradeableCashflowOption.sol:TradeableCashflowOption",
        "label": "_symbol",
        "offset": 0,
        "slot": "7",
        "type": "t_string_storage"
      },
      {
        "astId": 1116,
        "contract": "contracts/TradeableCashflowOption.sol:TradeableCashflowOption",
        "label": "_tokenURIs",
        "offset": 0,
        "slot": "8",
        "type": "t_mapping(t_uint256,t_string_storage)"
      },
      {
        "astId": 1118,
        "contract": "contracts/TradeableCashflowOption.sol:TradeableCashflowOption",
        "label": "_baseURI",
        "offset": 0,
        "slot": "9",
        "type": "t_string_storage"
      },
      {
        "astId": 5764,
        "contract": "contracts/TradeableCashflowOption.sol:TradeableCashflowOption",
        "label": "_underlyingAsset",
        "offset": 0,
        "slot": "10",
        "type": "t_contract(ERC20)972"
      },
      {
        "astId": 5766,
        "contract": "contracts/TradeableCashflowOption.sol:TradeableCashflowOption",
        "label": "_underlyingAmount",
        "offset": 0,
        "slot": "11",
        "type": "t_uint256"
      },
      {
        "astId": 5768,
        "contract": "contracts/TradeableCashflowOption.sol:TradeableCashflowOption",
        "label": "_underlyingDecimals",
        "offset": 0,
        "slot": "12",
        "type": "t_uint8"
      },
      {
        "astId": 5773,
        "contract": "contracts/TradeableCashflowOption.sol:TradeableCashflowOption",
        "label": "_DAI",
        "offset": 1,
        "slot": "12",
        "type": "t_contract(ERC20)972"
      },
      {
        "astId": 5775,
        "contract": "contracts/TradeableCashflowOption.sol:TradeableCashflowOption",
        "label": "_priceFeed",
        "offset": 0,
        "slot": "13",
        "type": "t_contract(AggregatorV3Interface)45"
      },
      {
        "astId": 5777,
        "contract": "contracts/TradeableCashflowOption.sol:TradeableCashflowOption",
        "label": "_priceFeedDecimals",
        "offset": 20,
        "slot": "13",
        "type": "t_uint8"
      },
      {
        "astId": 5779,
        "contract": "contracts/TradeableCashflowOption.sol:TradeableCashflowOption",
        "label": "_strikePrice",
        "offset": 0,
        "slot": "14",
        "type": "t_int256"
      },
      {
        "astId": 5781,
        "contract": "contracts/TradeableCashflowOption.sol:TradeableCashflowOption",
        "label": "_requiredFlowRate",
        "offset": 0,
        "slot": "15",
        "type": "t_int96"
      },
      {
        "astId": 5783,
        "contract": "contracts/TradeableCashflowOption.sol:TradeableCashflowOption",
        "label": "_expirationDate",
        "offset": 0,
        "slot": "16",
        "type": "t_uint256"
      },
      {
        "astId": 5785,
        "contract": "contracts/TradeableCashflowOption.sol:TradeableCashflowOption",
        "label": "optionReady",
        "offset": 0,
        "slot": "17",
        "type": "t_bool"
      },
      {
        "astId": 5787,
        "contract": "contracts/TradeableCashflowOption.sol:TradeableCashflowOption",
        "label": "optionActive",
        "offset": 1,
        "slot": "17",
        "type": "t_bool"
      },
      {
        "astId": 5789,
        "contract": "contracts/TradeableCashflowOption.sol:TradeableCashflowOption",
        "label": "_host",
        "offset": 2,
        "slot": "17",
        "type": "t_contract(ISuperfluid)5382"
      },
      {
        "astId": 5791,
        "contract": "contracts/TradeableCashflowOption.sol:TradeableCashflowOption",
        "label": "_cfa",
        "offset": 0,
        "slot": "18",
        "type": "t_contract(IConstantFlowAgreementV1)4106"
      },
      {
        "astId": 5793,
        "contract": "contracts/TradeableCashflowOption.sol:TradeableCashflowOption",
        "label": "_acceptedToken",
        "offset": 0,
        "slot": "19",
        "type": "t_contract(ISuperToken)4894"
      },
      {
        "astId": 5795,
        "contract": "contracts/TradeableCashflowOption.sol:TradeableCashflowOption",
        "label": "_receiver",
        "offset": 0,
        "slot": "20",
        "type": "t_address"
      },
      {
        "astId": 6414,
        "contract": "contracts/TradeableCashflowOption.sol:TradeableCashflowOption",
        "label": "initialRate",
        "offset": 20,
        "slot": "20",
        "type": "t_int96"
      },
      {
        "astId": 6416,
        "contract": "contracts/TradeableCashflowOption.sol:TradeableCashflowOption",
        "label": "_senderAddress",
        "offset": 0,
        "slot": "21",
        "type": "t_address"
      }
    ],
    "types": {
      "t_address": {
        "encoding": "inplace",
        "label": "address",
        "numberOfBytes": "20"
      },
      "t_array(t_bytes32)dyn_storage": {
        "base": "t_bytes32",
        "encoding": "dynamic_array",
        "label": "bytes32[]",
        "numberOfBytes": "32"
      },
      "t_array(t_struct(MapEntry)2672_storage)dyn_storage": {
        "base": "t_struct(MapEntry)2672_storage",
        "encoding": "dynamic_array",
        "label": "struct EnumerableMap.MapEntry[]",
        "numberOfBytes": "32"
      },
      "t_bool": {
        "encoding": "inplace",
        "label": "bool",
        "numberOfBytes": "1"
      },
      "t_bytes32": {
        "encoding": "inplace",
        "label": "bytes32",
        "numberOfBytes": "32"
      },
      "t_bytes4": {
        "encoding": "inplace",
        "label": "bytes4",
        "numberOfBytes": "4"
      },
      "t_contract(AggregatorV3Interface)45": {
        "encoding": "inplace",
        "label": "contract AggregatorV3Interface",
        "numberOfBytes": "20"
      },
      "t_contract(ERC20)972": {
        "encoding": "inplace",
        "label": "contract ERC20",
        "numberOfBytes": "20"
      },
      "t_contract(IConstantFlowAgreementV1)4106": {
        "encoding": "inplace",
        "label": "contract IConstantFlowAgreementV1",
        "numberOfBytes": "20"
      },
      "t_contract(ISuperToken)4894": {
        "encoding": "inplace",
        "label": "contract ISuperToken",
        "numberOfBytes": "20"
      },
      "t_contract(ISuperfluid)5382": {
        "encoding": "inplace",
        "label": "contract ISuperfluid",
        "numberOfBytes": "20"
      },
      "t_int256": {
        "encoding": "inplace",
        "label": "int256",
        "numberOfBytes": "32"
      },
      "t_int96": {
        "encoding": "inplace",
        "label": "int96",
        "numberOfBytes": "12"
      },
      "t_mapping(t_address,t_bool)": {
        "encoding": "mapping",
        "key": "t_address",
        "label": "mapping(address => bool)",
        "numberOfBytes": "32",
        "value": "t_bool"
      },
      "t_mapping(t_address,t_mapping(t_address,t_bool))": {
        "encoding": "mapping",
        "key": "t_address",
        "label": "mapping(address => mapping(address => bool))",
        "numberOfBytes": "32",
        "value": "t_mapping(t_address,t_bool)"
      },
      "t_mapping(t_address,t_struct(UintSet)3621_storage)": {
        "encoding": "mapping",
        "key": "t_address",
        "label": "mapping(address => struct EnumerableSet.UintSet)",
        "numberOfBytes": "32",
        "value": "t_struct(UintSet)3621_storage"
      },
      "t_mapping(t_bytes32,t_uint256)": {
        "encoding": "mapping",
        "key": "t_bytes32",
        "label": "mapping(bytes32 => uint256)",
        "numberOfBytes": "32",
        "value": "t_uint256"
      },
      "t_mapping(t_bytes4,t_bool)": {
        "encoding": "mapping",
        "key": "t_bytes4",
        "label": "mapping(bytes4 => bool)",
        "numberOfBytes": "32",
        "value": "t_bool"
      },
      "t_mapping(t_uint256,t_address)": {
        "encoding": "mapping",
        "key": "t_uint256",
        "label": "mapping(uint256 => address)",
        "numberOfBytes": "32",
        "value": "t_address"
      },
      "t_mapping(t_uint256,t_string_storage)": {
        "encoding": "mapping",
        "key": "t_uint256",
        "label": "mapping(uint256 => string)",
        "numberOfBytes": "32",
        "value": "t_string_storage"
      },
      "t_string_storage": {
        "encoding": "bytes",
        "label": "string",
        "numberOfBytes": "32"
      },
      "t_struct(Map)2680_storage": {
        "encoding": "inplace",
        "label": "struct EnumerableMap.Map",
        "members": [
          {
            "astId": 2675,
            "contract": "contracts/TradeableCashflowOption.sol:TradeableCashflowOption",
            "label": "_entries",
            "offset": 0,
            "slot": "0",
            "type": "t_array(t_struct(MapEntry)2672_storage)dyn_storage"
          },
          {
            "astId": 2679,
            "contract": "contracts/TradeableCashflowOption.sol:TradeableCashflowOption",
            "label": "_indexes",
            "offset": 0,
            "slot": "1",
            "type": "t_mapping(t_bytes32,t_uint256)"
          }
        ],
        "numberOfBytes": "64"
      },
      "t_struct(MapEntry)2672_storage": {
        "encoding": "inplace",
        "label": "struct EnumerableMap.MapEntry",
        "members": [
          {
            "astId": 2669,
            "contract": "contracts/TradeableCashflowOption.sol:TradeableCashflowOption",
            "label": "_key",
            "offset": 0,
            "slot": "0",
            "type": "t_bytes32"
          },
          {
            "astId": 2671,
            "contract": "contracts/TradeableCashflowOption.sol:TradeableCashflowOption",
            "label": "_value",
            "offset": 0,
            "slot": "1",
            "type": "t_bytes32"
          }
        ],
        "numberOfBytes": "64"
      },
      "t_struct(Set)3235_storage": {
        "encoding": "inplace",
        "label": "struct EnumerableSet.Set",
        "members": [
          {
            "astId": 3230,
            "contract": "contracts/TradeableCashflowOption.sol:TradeableCashflowOption",
            "label": "_values",
            "offset": 0,
            "slot": "0",
            "type": "t_array(t_bytes32)dyn_storage"
          },
          {
            "astId": 3234,
            "contract": "contracts/TradeableCashflowOption.sol:TradeableCashflowOption",
            "label": "_indexes",
            "offset": 0,
            "slot": "1",
            "type": "t_mapping(t_bytes32,t_uint256)"
          }
        ],
        "numberOfBytes": "64"
      },
      "t_struct(UintSet)3621_storage": {
        "encoding": "inplace",
        "label": "struct EnumerableSet.UintSet",
        "members": [
          {
            "astId": 3620,
            "contract": "contracts/TradeableCashflowOption.sol:TradeableCashflowOption",
            "label": "_inner",
            "offset": 0,
            "slot": "0",
            "type": "t_struct(Set)3235_storage"
          }
        ],
        "numberOfBytes": "64"
      },
      "t_struct(UintToAddressMap)2998_storage": {
        "encoding": "inplace",
        "label": "struct EnumerableMap.UintToAddressMap",
        "members": [
          {
            "astId": 2997,
            "contract": "contracts/TradeableCashflowOption.sol:TradeableCashflowOption",
            "label": "_inner",
            "offset": 0,
            "slot": "0",
            "type": "t_struct(Map)2680_storage"
          }
        ],
        "numberOfBytes": "64"
      },
      "t_uint256": {
        "encoding": "inplace",
        "label": "uint256",
        "numberOfBytes": "32"
      },
      "t_uint8": {
        "encoding": "inplace",
        "label": "uint8",
        "numberOfBytes": "1"
      }
    }
  }
}